:100000000C942A000C940D010C9452010C9447009E
:100010000C9447000C9447000C9447000C94470044
:100020000C9447000C9497010C9447000C944700E3
:100030000C9447000C9447000C9447000C94470024
:100040000C9447000C9447000C9447000C94470014
:100050000C94470011241FBECFE5D4E0DEBFCDBF16
:1000600010E0A0E6B0E0E4EFF4E002C005900D92ED
:10007000A03BB107D9F720E0A0EBB0E001C01D9292
:10008000A03CB207E1F70E9429020C9478020C947C
:10009000000010BC83E389B91BB888E18AB986E8FF
:1000A00080BD08955D9BFECF8CB90895CF93DF93FB
:1000B000EC018881882331F021960E9452008991B9
:1000C0008111FBCFDF91CF910895EF92FF920F93B3
:1000D0001F93CF93DF93AC019C01329522952F7033
:1000E00023273F702327A7E4B3E00E946902EC01B5
:1000F000D695C795D695C795D695C79520E137E291
:10010000C29FC001C39F900DD29F900D1124EA01A0
:10011000C81BD90B9E013695279536952795ABE7D9
:10012000B4E10E9469028C01169507950F2EFDEC33
:10013000FF2EF02D0F9DE12C1124E694E694E69419
:1001400080E38E0D0E945200EE0C8E2D880F880FDA
:10015000E80E802F8E19805D0E94520024E6209FB9
:10016000C001219F900D1124C81BD90BCF9DD12D0B
:100170001124D695D695D69580E38D0F0E94520016
:10018000DD0F8D2F880F880FD80F8C2F8D1B805D72
:100190000E945200DF91CF911F910F91FF90EF903D
:1001A000089589EA8FBD82E08EBD1BBC1ABC81B365
:1001B000806381BB40916200509163008091BC00DC
:1001C0009091BD00480F591F20916000309161004F
:1001D000429FC001439F900D529F900D11249BBDE3
:1001E0008ABD20916200309163008091BC009091A3
:1001F000BD00820F931F99BD88BD089589B78160A6
:1002000089BF83B7816083BF089585B78F6085BF3D
:100210008BB7806C8BBF789408951F920F920FB6A6
:100220000F9211242F933F934F935F936F937F937C
:100230008F939F93AF93BF93EF93FF938091BA00F7
:100240009091BB009093B9008093B8001092B100D8
:1002500084E690E00E9456008091BA009091BB0025
:100260000E94650083E790E00E9456008AB59BB526
:100270000E9465008DE00E9452001092BB00109217
:10028000BA00FF91EF91BF91AF919F918F917F91B4
:100290006F915F914F913F912F910F900FBE0F90F3
:1002A0001F9018951F920F920FB60F9211242F9343
:1002B0003F934F935F936F937F938F939F93AF93EE
:1002C000BF93EF93FF938091B6009091B700909306
:1002D000B5008093B4001092B0008DE790E00E94CA
:1002E00056008091B6009091B7000E9465008DE89D
:1002F00090E00E94560088B599B50E9465008DE097
:100300000E9452001092B7001092B600FF91EF9138
:10031000BF91AF919F918F917F916F915F914F911D
:100320003F912F910F900FBE0F901F9018951F9225
:100330000F920FB60F9211248F939F938091BA0062
:100340009091BB0001969093BB008093BA0080917E
:10035000B6009091B70001969093B7008093B600D5
:100360009F918F910F900FBE0F901F90189587E966
:1003700090E00E9456008DE00E9452008BB3806591
:100380008BBB8091B100811117C08091B0008111A9
:1003900013C08091B8009091B9002091B4003091C1
:1003A000B500821B930B9093B3008093B20081E061
:1003B0008093B1008093B0008091B2009091B3001F
:1003C0008C3E2FEF920754F42091BE003091BF0075
:1003D0002B5F3F4F3093BF002093BE0045974CF0FA
:1003E0008091BC009091BD0005969093BD008093D4
:1003F000BC001092B3001092B20040916200509184
:1004000063008091BE009091BF00480F591F20915A
:10041000600030916100429FC001439F900D529F48
:10042000900D11249BBD8ABD209162003091630024
:100430008091BC009091BD00820F931F99BD88BD33
:1004400008958AB3806F8ABBA79A8BB380658BBBF4
:1004500008950E9449002FE38DE093E021508040F1
:100460009040E1F700C0000083EA90E00E9456004F
:100470008DE00E9452008DED97E00E9465008DE0B6
:100480000E9452000E94D1000E9405010E94FE00BD
:100490000E94210283B590E00E9465008CB790E035
:1004A0000E946500AF9A2FE38DE093E021508040D9
:1004B0009040E1F700C00000AF982FE38DE093E09B
:1004C000215080409040E1F700C000000E94B70139
:1004D000FDCFA29FB001B39FC001A39F700D811DEE
:1004E0001124911DB29F700D811D1124911D08953D
:0404F000F894FFCFAE
:1004F4000100C000696D70756C73654C656674208D
:100504003D2000204F43523141203D2000696D7051
:10051400756C73655269676874203D2000204F43F1
:10052400523142203D20004D6F7665466F727761EF
:10053400726400616C65782D6578652E72750000B3
:00000001FF
