:100000000C942A000C9447000C9447000C94470071
:100010000C9447000C9447000C9447000C94470044
:100020000C9447000C9447000C9447000C94470034
:100030000C9447000C9447000C9447000C94470024
:100040000C9447000C9447000C9447000C94470014
:100050000C94470011241FBECFE5D4E0DEBFCDBF16
:1000600010E0A0E6B0E0E8ECF0E002C005900D92F0
:10007000A036B107D9F720E0A0E6B0E001C01D929C
:10008000A036B207E1F70E9452000C9462000C9473
:10009000000083B7896683BF1CBE85B5896685BDB0
:1000A00013BC08950E9449008FEF8ABB8F9ABB9AB8
:1000B0008BB380658BBB8FE783BD8DEF8CBF80E0FA
:0800C00090E00895F894FFCFD1
:00000001FF
