S01700004469706C6F6D5F726F626F745F76312E737265631D
S11300000C942A000C946D000C9484000C9447000A
S11300100C94A5000C9447000C9447000C944700E2
S11300200C9447000C949B000C9447000C944700DC
S11300300C9447000C9447000C9447000C94470020
S11300400C9447000C9447000C9447000C94470010
S11300500C94470011241FBECFE5D4E0DEBFCDBF12
S113006010E0A0E6B0E0E0E7F3E002C005900D92F6
S1130070A037B107D9F720E0A0E7B0E001C01D9296
S1130080A637B207E1F70E942E010C94B6010C9436
S1130090000010BC83E389B91BB888E18AB986E8FB
S11300A080BD089583B78A6683BF1CBE85B58A6602
S11300B085BD13BC89EA8FBD82E08EBD1BBC1ABC12
S11300C081B3806B81BBBB9A089585B7836085BF7C
S11300D08BB780648BBF789408951F920F920FB6EC
S11300E00F9211248F939F938091620090916300EB
S11300F0019690936300809362009F918F910F907B
S11301000FBE0F901F9018951F920F920FB60F926B
S113011011248F939F9380916200909163000196C4
S113012090936300809362009F918F910F900FBE14
S11301300F901F9018951F920F920FB60F921124D3
S11301400F900FBE0F901F9018951F920F920FB62D
S11301500F9211240F900FBE0F901F9018955D9B66
S1130160FECF8CB90895CF93DF93EC018881882367
S113017031F021960E94AF0089918111FBCFDF916C
S1130180CF910895EF92FF920F931F93CF93DF9334
S1130190AC019C01329522952F7023273F702327B1
S11301A0A7E4B3E00E94A701EC01D695C795D695C4
S11301B0C795D695C79520E137E2C29FC001C39F7A
S11301C0900DD29F900D1124EA01C81BD90B9E01FA
S11301D03695279536952795ABE7B4E10E94A7019C
S11301E08C01169507950F2EFDECFF2EF02D0F9D1B
S11301F0E12C1124E694E694E69480E38E0D0E94AB
S1130200AF00EE0C8E2D880F880FE80E802F8E190C
S1130210805D0E94AF0024E6209FC001219F900DC5
S11302201124C81BD90BCF9DD12D1124D695D69559
S1130230D69580E38D0F0E94AF00DD0F8D2F880FC0
S1130240880FD80F8C2F8D1B805D0E94AF00DF912B
S1130250CF911F910F91FF90EF9008950E94490054
S11302602FE38DE093E0215080409040E1F700C0FF
S1130270000084E690E00E94B3008DE00E94AF008D
S11302808DED97E00E94C2008DE00E94AF000E94B5
S113029052000E9465008FEF8ABBA79A8BB38065DA
S11302A08BBB84EB90E090937500809374008091F5
S11302B07200909173008C549F4F90916000989FAE
S11302C0802D112483BD9091700080917400890F5A
S11302D08CBF2091740030917500809170009091D2
S11302E07100820F931F9BBD8ABD209174003091D1
S11302F075008091700090917100820F931F99BDD9
S113030088BD83B590E00E94C2008CB790E00E9443
S1130310C200AF9A2FE38DE093E0215080409040DB
S1130320E1F700C00000AF982FE38DE093E0215087
S113033080409040E1F700C00000809162009091FD
S113034063000E94C2008DE00E94AF00F6CFA29F1E
S1130350B001B39FC001A39F700D811D1124911D95
S1130360B29F700D811D1124911D0895F894FFCF43
S113037001000100616C65782D6578652E72750049
S9030000FC
