S0130000686964726F706F6E6963732E737265636F
S113000012C021C020C01FC01EC01DC01CC01BC008
S11300101AC074C018C017C016C015C014C013C0CD
S113002012C011C010C011241FBECFE5D4E0DEBF42
S1130030CDBF20E0A0E6B0E001C01D92AD36B2070E
S1130040E1F7F7D04CC1DCCF8FEF81BB14BA82BB90
S113005085BB88BB089583B7856083BF89B78160FA
S113006089BF789408958FE181BD8FE081BD0895A3
S11300702091620030916300C9016EE170E008D103
S1130080862F609367002F3131056CF01092630066
S11300901092620090916900992329F090916B006D
S11300A09F5F90936B008D3348F0809166008F5F63
S11300B08093660010926300109262008091660043
S11300C08D33A8F0809165008F5F809365008091E7
S11300D064008F5F8093640080916800882329F016
S11300E080916A008F5F80936A001092660080910D
S11300F06500893110F01092650008951F920F92E7
S11301000FB60F9211248F939F9380916200909168
S11301106300019690936300809362009F918F9196
S11301200F900FBE0F901F9018959A9912C081E0FE
S113013080936C009B990DC082E080936C009C9925
S113014008C083E080936C009D9903C084E0809391
S11301506C000895813051F46130A9F49098809333
S113016060000895909A109260000895823081F49E
S1130170613061F4919881E0809361000895919ACF
S1130180109261000895623019F4ECCF6230B9F333
S1130190089580916B008C3388F4809169008823E2
S11301A001F18091600081111CC061E070E081E088
S11301B090E0D0DF80916B008C3398F080916900DF
S11301C0882379F080916000882329F062E070E050
S11301D081E090E0BFDF10926400109269001092F9
S11301E06B00089580916A00811115C080916800A8
S11301F0882389F08091610081111AC061E070E068
S113020082E090E0A7DF80916A00811104C08091B0
S1130210680081110DC080916100882329F062E09B
S113022070E082E090E096DF10926A00109268001D
S113023008950ADF10DF17DFC1E01ADFAADFD2DF7B
S113024074DFA8959091640080916C00981710F069
S1130250C0936900989BC0936900999906C08091E6
S11302606100811102C0C0936800809165008130F3
S113027031F480916100811102C0C09368009999A2
S1130280DCCF809161008823C1F210926800D5CF41
S113029097FB072E16F4009406D077FD08D00BD0F8
S11302A007FC05D03EF4909581959F4F0895709575
S11302B061957F4F0895AA1BBB1B51E107C0AA1F7C
S11302C0BB1FA617B70710F0A61BB70B881F991FF3
S11302D05A95A9F780959095BC01CD010895F8949D
S10502E0FFCF4A
S9030000FC
