:1000000012C021C020C01FC01EC01DC01CC01BC00C
:100010001AC045C018C017C016C015C014C013C000
:1000200012C011C010C011241FBECFE5D4E0DEBF46
:10003000CDBF20E0A0E6B0E001C01D92AA36B20715
:10004000E1F744D09FC0DCCF8FEF81BB12BA089597
:1000500083B7856083BF89B7816089BF789408952D
:1000600080916000909161006EE170E064D07093C7
:100070006700609366008091640090916500CC9762
:100080006CF0809162009091630001969093630000
:1000900080936200109265001092640008951F9290
:1000A0000F920FB60F9211248F939F93809160004F
:1000B00090916100019690936100809360009F9100
:1000C0008F910F900FBE0F901F901895BDDFC0DF6E
:1000D000F12C0AE010E0EE24E394C6E6D0E0C0DFA5
:1000E00080916600909167002F2D30E02817390726
:1000F00011F010926800B8011ED0892BD1F48091C4
:100100006900811109C080916800811112C0909A24
:10011000E0926900E092680080916900813049F4C2
:1001200080916800811105C0909810926900E0925A
:100130006800F880D4CF97FB072E16F4009406D001
:1001400077FD08D00BD007FC05D03EF49095819543
:100150009F4F0895709561957F4F0895AA1BBB1B13
:1001600051E107C0AA1FBB1FA617B70710F0A61BB7
:10017000B70B881F991F5A95A9F780959095BC01D8
:08018000CD010895F894FFCFB2
:00000001FF
