:1000000012C02CC02BC02AC029C028C027C026C0BF
:1000100025C076C023C022C021C020C01FC01EC082
:100020001DC01CC01BC011241FBECFE5D4E0DEBF25
:10003000CDBF10E0A0E6B0E0E6EDF2E002C0059032
:100040000D92A236B107D9F720E0A2E6B0E001C0D8
:100050001D92AE36B207E1F7C7D03BC1D1CF8FEFCB
:1000600081BB14BA82BB85BB88BB089583B785600A
:1000700083BF89B7816089BF789408958FE181BD7E
:100080008FE081BD089580916400909165006EE1DC
:1000900070E0F8D0609368006D33B8F0809167002D
:1000A0008F5F8093670080916A008F5F80936A0002
:1000B00080916000882329F080916C008F5F80938D
:1000C0006C001092650010926400809167008D337F
:1000D00080F0809166008F5F809366008091690058
:1000E000882329F080916B008F5F80936B001092C2
:1000F000670080916600893110F0109266000895C3
:100100001F920F920FB60F9211248F939F9380919D
:10011000640090916500019690936500809364005F
:100120009F918F910F900FBE0F901F9018959A99E5
:1001300012C08FE080936D009B990DC08EE180937B
:100140006D009C9908C08DE280936D009D9903C05D
:100150008CE380936D000895813051F46130A9F4EF
:100160009098809362000895909A1092620008958A
:10017000823081F4613061F4919881E08093630072
:100180000895919A109263000895623019F4ECCFAB
:100190006230B9F3089580916C00843088F48091C6
:1001A0006000882301F18091620081111CC061E030
:1001B00070E081E090E0D0DF80916C00843098F0B6
:1001C00080916000882379F080916200882329F073
:1001D00062E070E081E090E0BFDF10926A00109270
:1001E000600010926C0008953ADF40DF47DFC1E005
:1001F0004ADFD1DF9CDFA89590916A0080916D0065
:10020000981710F0C0936000989BC0936000809195
:1002100066008A3011F4C093690099990BC0C093AD
:1002200069006C2F82E098DF87EA91E60197F1F789
:1002300000C0000080916B00803118F010926900BE
:100240000BC080916900813019F46C2F82E084DF4B
:1002500080916900811105C062E082E07DDF10922B
:100260006B009999C5CF80916900882309F4C0CFAC
:1002700062E082E071DF87EA91E60197F1F700C062
:100280000000B6CF97FB072E16F4009406D077FD3A
:1002900008D00BD007FC05D03EF4909581959F4F78
:1002A0000895709561957F4F0895AA1BBB1B51E17E
:1002B00007C0AA1FBB1FA617B70710F0A61BB70BD6
:1002C000881F991F5A95A9F780959095BC01CD017B
:0602D0000895F894FFCF31
:0202D600010025
:00000001FF
