:1000000012C02CC02BC02AC029C028C027C026C0BF
:1000100025C024C023C022C021C020C01FC01EC0D4
:100020001DC01CC01BC011241FBECFE5D4E0DEBF25
:10003000CDBF22E0A4E6B0E001C01D92A136B20718
:10004000E1F710E0A0E6B0E0E4EFF6E002C00590D2
:100050000D92A436B107D9F74ED04AC3D1CFF5D00F
:1000600078D08FD0A09A08950F93CF9321E043E0EA
:1000700065E08AE2E4D1C0E021E04C2F6EE18AE243
:10008000DED1CF5FC730C1F701E02AE147E265E08A
:1000900087E258D12AE14DE265E08DE253D1CF915C
:1000A0000F910895EF92FF920F93CF93DF937C010E
:1000B000C8E100E02C2F4CE26C2F88E243D1C15004
:1000C000C330B9F783E0E80EF11C88E1E816F104CB
:1000D00064F4C8E1D0E001E02C2F4CE26C2F88E200
:1000E00031D12197EC16FD06B4F3DF91CF910F913A
:1000F000FF90EF900895B3DFC1E0D0E007E110E09A
:10010000B3DFA89ACE018FD28AD2B80117D2CADF44
:1001100038D02FEF84E39CE0215080409040E1F7FD
:1001200000C0000015BA2FEF89E698E12150804009
:100130009040E1F700C000002196E2CFC298613004
:1001400011F4C19A01C0C1988FB9779BFECFC29AB2
:10015000089588EF91E0E9E6F0E0DF019C011D924F
:1001600021503040E1F7109268001092670087EF4D
:1001700091E0909366008093650081E08093640035
:1001800008950F931F93CF93DF9380916700909111
:10019000680099232CF4109268001092670009C03F
:1001A000883F914034F087EF91E09093680080930E
:1001B0006700809165009091660099232CF410925D
:1001C00066001092650009C0883F914034F087EFC7
:1001D00091E09093660080936500C0916700D09194
:1001E0006800CE0164E570E0A9D1162F60E0806858
:1001F000A5DF60E0812F8064A1DF80916500909190
:1002000066008C179D0784F08E0107591F4F61E02F
:10021000F80181918F0192DF219680916500909184
:1002200066008C179D079CF787EF91E0909368001C
:10023000809367001092660010926500109264002F
:10024000DF91CF911F910F910895C49A87B38E6368
:1002500087BBC498C49A80E58DB9C29A60E081E2F8
:100260006DDF60E088EC6ADF60E086E067DF60E019
:1002700083E164DF60E080E261DF60E08CE05EDF0C
:1002800068DF7FDF0895843508F056C0603308F0DA
:1002900055C0262F26952695269590E034E5239F78
:1002A000800D911D1124220F220F220F621BFC01D1
:1002B000E759FF4F508141110CC021E030E0F901B6
:1002C00002C0EE0FFF1F6A95E2F7BF01609556234B
:1002D00017C0413051F421E030E0F90102C0EE0FC7
:1002E000FF1F6A95E2F75E2B0BC0423049F421E014
:1002F00030E0F90102C0EE0FFF1F6A95E2F75E27BA
:10030000FC01E759FF4F508320916700309168004E
:100310008217930724F490936800809367002091DC
:100320006500309166002817390754F490936600F1
:100330008093650080E0089581E0089581E008954C
:1003400080E008957F928F929F92AF92BF92CF925A
:10035000DF92EF92FF920F931F93CF93DF93B82E0C
:10036000162F742E822EC22ED12CC61AD108E42E3E
:10037000F12CE81AF108DD2034F4D194C194D108AD
:1003800099249A9402C099249394FF2034F4F19410
:10039000E194F108AA24AA9402C0AA24A394402FAD
:1003A000612F8B2D70DF81113CC0EE0CFF1CCC0C3B
:1003B000DD1CCE14DF04CCF4C70195958795E601CA
:1003C000C81BD90B7B1449F1DD231CF0190DCE1984
:1003D000DF09BA0CCC0DDD1D402F612F8B2D53DFB3
:1003E00081111FC07B10F0CF18C0C601959587956D
:1003F000E701C81BD90B811681F0DD231CF0BA0C74
:10040000CC19DD09190DCE0DDF1D402F612F8B2D6D
:100410003ADF811106C08112F0CF81E08093640041
:1004200080E0DF91CF911F910F91FF90EF90DF90CF
:10043000CF90BF90AF909F908F907F9008959F92A4
:10044000AF92BF92CF92DF92EF92FF920F931F93E2
:10045000CF93DF93082FF62EC22F843508F05FC0AC
:100460008FE2861708F45DC0D42F440F83E0E82E96
:10047000E41ADD230CF44EC0DD24D39410E09D2E4D
:100480004C2FCD2ECF0C6C2DA12EA00E8A2DFBDE75
:100490004C2FBF2CBD1A6B2D8A2DF5DE4C2F6C2DE9
:1004A000C02EC11A8C2DEFDE4C2F6B2D8C2DEBDE68
:1004B0004C2FC12ECF0C6C2DAD2EA00E8A2DE3DE5D
:1004C0004C2FBF2CB11A6B2D8A2DDDDE4C2F6C2DDD
:1004D000C02ECD1A8C2DD7DE4C2F6B2D8C2DD3DE5C
:1004E000EE204CF48D2D26E02E0D912F990F990FB3
:1004F000E22EE90E0AC08D2DD1502AE02E0D912F4B
:100500009919990F990FE22EE90E1F5FD394D8170E
:100510000CF0B5CF81E08093640080E003C081E0FF
:1005200001C081E0DF91CF911F910F91FF90EF907B
:10053000DF90CF90BF90AF909F90089597FB072ECC
:1005400016F4009406D077FD08D00BD007FC05D038
:100550003EF4909581959F4F0895709561957F4FDA
:100560000895AA1BBB1B51E107C0AA1FBB1FA617FA
:10057000B70710F0A61BB70B881F991F5A95A9F74C
:1005800080959095BC01CD0108958F929F92AF9276
:10059000BF92CF92DF92EF92FF92CF93DF93EC0165
:1005A000688179818A819B81611571058105910539
:1005B00021F464E279ED8BE597E02DE133EF41E042
:1005C00050E03CD049015A019B01AC01A7EAB1E4DB
:1005D00051D06B017C01ACEEB4EFA501940156D073
:1005E000C60ED71EE81EF91EF7FE06C081E0C81A27
:1005F000D108E10880E8F80AC882D982EA82FB8241
:10060000C6019F77DF91CF91FF90EF90DF90CF9061
:10061000BF90AF909F908F900895B7DF089580E6C8
:1006200090E0B3DF0895A0E0B0E080936000909385
:100630006100A0936200B09363000895052E97FBBC
:1006400016F400940FD057FD05D024D007FC02D03B
:1006500046F408C050954095309521953F4F4F4F37
:100660005F4F089590958095709561957F4F8F4F5E
:100670009F4F089531D0A59F900DB49F900DA49FDA
:10068000800D911D11240895B7FFF4CFF3DF821B75
:10069000930B0895A1E21A2EAA1BBB1BFD010DC0EE
:1006A000AA1FBB1FEE1FFF1FA217B307E407F50722
:1006B00020F0A21BB30BE40BF50B661F771F881FFE
:1006C000991F1A9469F760957095809590959B0194
:1006D000AC01BD01CF010895A29FB001B39FC0013D
:1006E000A39F01D0B29F700D811D1124911D08950B
:0406F000F894FFCFAC
:0406F4000100000001
:00000001FF
