:1000000012C021C020C01FC01EC01DC01CC01BC00C
:100010001AC019C018C017C016C015C014C013C02C
:1000200012C011C010C011241FBECFE5D4E0DEBF46
:10003000CDBF22E0A0E6B0E001C01D92AD35B20711
:10004000E1F72BD02CC1DCCFE5D086B1876886B92B
:100050003E9A08958FEF81BB12BA089527B1227F8F
:10006000019709F4216027B98AE18A95F1F700C068
:1000700024E130E080E090E0369A3699FECF44B13A
:1000800055B1840F951F2150310921153105A1F774
:1000900064E170E0DDD0CB010895D6DFDBDF80E0E6
:1000A00090E0DCDFEC0181E090E0D8DF8C179D0769
:1000B0005CF4909A2FE738E341E021503040404013
:1000C000E1F700C000009098C817D9075CF4919A36
:1000D0002FE738E341E0215030404040E1F700C0D5
:1000E00000009198C817D907D1F6919A909A8FE796
:1000F00098E321E0815090402040E1F700C00000EB
:1001000091989098CCCFC298613011F4C19A01C0F7
:10011000C1988FB9779BFECFC29A089588EF91E07E
:10012000E5E6F0E0DF019C011D9221503040E1F74F
:10013000109264001092630087EF91E09093620048
:100140008093610081E08093600008950F931F9376
:10015000CF93DF93809163009091640099232CF4F6
:10016000109264001092630009C0883F914034F0FF
:1001700087EF91E090936400809363008091610029
:100180009091620099232CF4109262001092610009
:1001900009C0883F914034F087EF91E0909362006E
:1001A00080936100C0916300D0916400CE0164E54A
:1001B00070E04ED0162F60E08068A5DF60E0812FF0
:1001C0008064A1DF80916100909162008C179D078F
:1001D00084F08E010B591F4F61E0F80181918F016E
:1001E00092DF219680916100909162008C179D07AB
:1001F0009CF787EF91E090936400809363001092E6
:1002000062001092610010926000DF91CF911F9107
:100210000F910895C49A87B38E6387BBC498C49A1C
:1002200080E58DB9C29A60E081E26DDF60E088EC24
:100230006ADF60E086E067DF60E083E164DF60E062
:1002400080E261DF60E08CE05EDF68DF7FDF0895E1
:1002500097FB072E16F4009406D077FD08D00BD03C
:1002600007FC05D03EF4909581959F4F08957095B9
:1002700061957F4F0895AA1BBB1B51E107C0AA1FC0
:10028000BB1FA617B70710F0A61BB70B881F991F37
:100290005A95A9F780959095BC01CD010895F894E1
:0202A000FFCF8E
:00000001FF
