S01700004763634170706C69636174696F6E312E737265635B
S113000012C019C018C017C016C015C014C013C040
S113001012C011C010C00FC00EC00DC00CC00BC068
S11300200AC009C008C011241FBECFE5D4E0DEBF5A
S1130030CDBF09D038C0E4CF8FEF84BB15BA11BA55
S113004081E082BB0895F8DF6FEF51E047E030E0D4
S113005015BA80B381111CC055BB2FED73E984E040
S1130060215070408040E1F700C00000842F932F9E
S113007025B3220F25BBEFED23E974E0E1502040C6
S11300807040E1F700C000000197009789F7E0CFC6
S113009065BB8FEB97E2E9E081509040E040E1F7E7
S10D00A000C00000D5CFF894FFCF94
S9030000FC
