S015000065787465726E616C5F746573742E737265638D
S11300000C942A000C94DF000C9447000C944700D5
S11300100C9447000C9447000C9447000C94470040
S11300200C9447000C9447000C9447000C94470030
S11300300C9447000C9447000C9447000C94470020
S11300400C9447000C9447000C9447000C94470010
S11300500C94470011241FBECFE5D4E0DEBFCDBF12
S113006010E0A0E6B0E0E4EAF2E002C005900D92F0
S1130070AC36B107D9F720E0ACE6B0E001C01D9280
S1130080A037B207E1F70E9406010C9450010C94CA
S1130090000010BC83E389B91BB888E18AB986E8FB
S11300A080BD08955D9BFECF8CB90895CF93DF93F7
S11300B0EC018881882331F021960E9452008991B5
S11300C08111FBCFDF91CF910895EF92FF920F93AF
S11300D01F93CF93DF93AC019C01329522952F702F
S11300E023273F702327A7E4B3E00E944101EC01DA
S11300F0D695C795D695C795D695C79520E137E28D
S1130100C29FC001C39F900DD29F900D1124EA019C
S1130110C81BD90B9E013695279536952795ABE7D5
S1130120B4E10E9441018C01169507950F2EFDEC58
S1130130FF2EF02D0F9DE12C1124E694E694E69415
S113014080E38E0D0E945200EE0C8E2D880F880FD6
S1130150E80E802F8E19805D0E94520024E6209FB5
S1130160C001219F900D1124C81BD90BCF9DD12D07
S11301701124D695D695D69580E38D0F0E94520012
S1130180DD0F8D2F880F880FD80F8C2F8D1B805D6E
S11301900E945200DF91CF911F910F91FF90EF9039
S11301A0089581E88FBD81E08EBD1BBC1ABC089503
S11301B085B7816085BF8BB780648BBF08951F921C
S11301C00F920FB60F9211248F939F93AF93BF9307
S11301D080916C0090916D00A0916E00B0916F00C1
S11301E00196A11DB11D80936C0090936D00A093A6
S11301F06E00B0936F0081E085BBBF91AF919F917A
S11302008F910F900FBE0F901F9018958FEF84BBA6
S11302100E94D1000E94D8000E9449002FE38DE083
S113022093E0215080409040E1F700C0000080E658
S113023090E00E9456008DE00E9452008DED97E000
S11302400E9465008DE00E945200789480E090E066
S113025050E040E08F3F910574F42AB53BB52F5F21
S11302603F4F3BBD2ABD0196E3E2F4EF3197F1F72E
S113027000C0000004C01BBC1ABC852F942F15BA03
S1130280E9CFA29FB001B39FC001A39F700D811D50
S11302901124911DB29F700D811D1124911D08958B
S10702A0F894FFCFFC
S10F02A4616C65782D6578652E7275001C
S9030000FC
