S00C00006B7572732E7372656353
S1130000D7C1F1C1F0C1EFC1EEC1EDC1ECC1EBC18B
S1130010EAC155C2E8C1E7C1E6C1E5C1E4C1E3C133
S1130020E2C1E1C1E0C174656D705F76656E740014
S113003074656D705F666F727400766C616A6E6F62
S11300407374007365742074656D705F76656E7487
S1130050007365742074656D705F666F72740065FB
S11300607869740073657420766C616A6E6F73745A
S1130070007365742074656D7000766C616A6E6FD0
S113008073740074656D70657261747572610000DB
S11300900000000000005F00000007000700147F5C
S11300A0147F14242A7F2A124C2C10686436495574
S11300B022500005030000001C2241000041221CC4
S11300C00014083E081408083E08080000503000D8
S11300D01010101010006060000020100804023E90
S11300E05149453E00427F40004261514946214109
S11300F0454B311814127F1027454545393C4A4970
S113010049300171090503364949493606494929E7
S11301101E00363600000056360000081422410046
S11301201414141414004122140802015109063253
S11301304979413E7E1111117E7F494949363E413C
S11301404141227F4141221C7F494949417F09099C
S113015009013E4149497A7F0808087F00417F41EF
S1130160002040413F017F081422417F404040402D
S11301707F020C027F7F0408107F3E4141413E7F95
S1130180090909063E4151215E7F0919294646495C
S113019049493101017F01013F4040403F1F204058
S11301A0201F3F4038403F63140814630708700859
S11301B0076151494543007F414100020408102072
S11301C00041417F000402010204404040404000DD
S11301D00102040020545454787F4844443838447D
S11301E0444420384444487F3854545418087E0901
S11301F001020C5252523E7F0804047800447D40B0
S1130200002040443D007F1028440000417F40000E
S11302107C041804787C0804047838444444387C0A
S113022014141408081414187C7C08040408485492
S1130230545420043F4440203C4040207C1C204037
S1130240201C3C4030403C44281028440C50505062
S11302503C4464544C44000836410000007F0000D4
S113026000413608000804081008FFFFFFFFFF7C68
S11302701211127C7F494949317F494949367F012E
S1130280010101603F213F607F4949494177087F6F
S1130290087722414949367F1008047F7E100904FB
S11302A07E7F08142241403E01017F7F020C027FC1
S11302B07F0808087F3E4141413E7F0101017F7F65
S11302C0090909063E4141412201017F0101074814
S11302D048483F0E117F110E63140814633F202019
S11302E03F60070808087F7F407E407F3F203F2013
S11302F07F017F4848307F4830007F007F48483086
S1130300224149493E7F083E413E462919097F2042
S1130310545454783C4A4A4A317C545428007C044E
S1130320040C00603C243C6038545454186C107C19
S1130330106C00445454287C2010087C7C21120941
S11303407C7C10284400403804047C7C0810087C21
S11303507C1010107C38444444387C0404047C7CB5
S113036014141408384444440004047C04040C5059
S113037050503C08147C140844281028443C202085
S11303803C600C1010107C7C407C407C3C203C2069
S11303907C047C5050207C5020007C007C505020F9
S11303A028445454387C10384438485434147C005D
S11303B011241FBECFE5D4E0DEBFCDBF10E0A0E620
S11303C0B0E0E2ECF2E102C005900D92A636B1076E
S11303D0D9F722E0A6E6B0E001C01D92A638B20724
S11303E0E1F74BD26CC70CCEE0D38FE181BB80EE3A
S11303F082BB089586B1876886B987B1806C87B956
S1130400089583B7856083BF89B7816089BF789475
S1130410089527B1207F8130910519F0029719F0D2
S113042003C0216001C0226027B983E08A95F1F7F7
S113043000002AE030E080E090E0369A3699FECF62
S113044044B155B1840F951F21503109211531054F
S1130450A1F76AE070E00CD7CB0108958091750094
S11304609091760088309740B4F080917300909119
S113047074000196909374008093730080916A00D5
S113048090916B00019690936B0080936A00109298
S11304907600109275008091730090917400CC974F
S11304A06CF08091710090917200019690937200AB
S11304B080937100109274001092730008951F923B
S11304C00F920FB60F9211248F939F938091750012
S11304D090917600019690937600809375008799A9
S11304E003C081E080936800879B0BC08091680003
S11304F0882339F08091700081608093700010929D
S11305006800869903C081E080936700869B0BC0D6
S113051080916700882339F0809170008260809315
S1130520700010926700859903C081E08093660093
S1130530859B0BC080916600882339F08091700000
S1130540846080937000109266009F918F910F9049
S11305500FBE0F901F901895EF92FF920F931F9369
S113056080917000813019F488E08093700080914C
S11305707000893011F410927000809170008A30FC
S113058019F480E180937000809170008C3019F42C
S113059088E18093700080917000843119F480E2C6
S11305A08093700080917000823119F488E2809306
S11305B07000809170008C3181F480916000909182
S11305C061008F3F93404CF48091600090916100F2
S11305D001969093610080936000809170008A314D
S11305E081F48091600090916100181619064CF412
S11305F080916000909161000197909361008093D5
S1130600600080917000893111F410927000809123
S11306107000843281F480916400909165008F3F72
S113062093404CF4809164009091650001969093FE
S113063065008093640080917000823281F480911F
S1130640640090916500181619064CF480916400BA
S11306509091650001979093650080936400809168
S11306607000813211F410927000809170008C320D
S113067081F480916200909163008F3F93404CF429
S1130680809162009091630001969093630080933F
S11306906200809170008A3281F4809162009091AE
S11306A06300181619064CF480916200909163005F
S11306B00197909363008093620080917000893267
S11306C011F4109270008091700081112CC023E805
S11306D030E041E060E081E0A4D360916E0070916D
S11306E06F00882777FD8095982FD3D48B019C01C8
S11306F0E12CF12C41E061E084E0B0D32AE730E062
S113070041E063E081E08DD360916C0070916D00F5
S1130710882777FD8095982FBCD48B019C0141E0FC
S113072064E084E09BD380917000883091F421E7E9
S113073030E041E060E080E074D324E630E041E062
S113074061E080E06ED32FE530E041E063E084E0D7
S113075068D380917000803161F421E530E041E09C
S113076060E080E05ED323E430E041E061E080E0DB
S113077058D3809170008831B9F42AE330E041E025
S113078060E083E04ED3609160007091610088273F
S113079077FD8095982F7DD48B019C01E12CF12C61
S11307A041E061E085E05AD3809170008032B9F471
S11307B020E330E041E060E083E033D36091640003
S11307C070916500882777FD8095982F62D48B01FE
S11307D09C01E12CF12C41E061E085E03FD3809164
S11307E070008832B9F426E230E041E060E083E052
S11307F018D36091620070916300882777FD80951B
S1130800982F47D48B019C01E12CF12C41E061E04D
S113081085E024D380917000887F809370001F91BD
S11308200F91FF90EF900895882379F0909A2FE725
S113083084E89EE1215080409040E1F700C0000030
S113084081E08093690090980895919A10926900CC
S11308502FE784E89EE1215080409040E1F700C0FA
S1130860000091980895949A80E090E0D2DD9093EE
S11308706D0080936C0094980895B6DDC2DDBADDF6
S113088082E090E0C6DDBC01882777FD8095982F33
S113089000D422E538EB4EE650E487D420E030E083
S11308A048EC52E482D420E030EC4FE754E456D3D1
S11308B023E333E948E853E4ECD2B8D370936F00F0
S11308C060936E00809175009091760084589340F7
S11308D04E9708F4C8DF20916E0030916F0080912C
S11308E06400909165002817390734F080916900FD
S11308F0811102C081E098DF20916E0030916F0079
S113090080916400909165002817390734F4809130
S11309106900882311F080E087DF20916E00309118
S11309206F0080916200909163002817390714F0DA
S1130930929A01C0929820916C0030916D00809140
S1130940600090916100281739072CF4939A109253
S11309506B0010926A0080916A0090916B0001977D
S113096009F493987BDDA5D0F7DDBBD02FE986E8A9
S113097091E0215080409040E1F700C0000080CF1A
S1130980C298613011F4C19A01C0C1988FB9779BA4
S1130990FECFC29A0895CF92DF92EF92FF920F9307
S11309A01F93CF93DF936B017C01EA01CA01019786
S11309B0209781F061E070E09B01220F331F660FE6
S11309C0771F660F771F660F771F620F731F0197DC
S11309D098F702C061E070E0882777FD8095982F32
S11309E058D3A7019601E1D321D377231CF40FEF49
S11309F01FEF02C001E010E0069F9001079F300D39
S1130A00169F300D11240F2EF6E8EF2EF0E0FF2E86
S1130A10F02D0F2EFAE0CF2ED12CF02D4EE202C095
S1130A20EC017F01F701C901B60122D4805D8293F4
S1130A30262F372FCE010197009739F4F70132970B
S1130A4040832115310561F721C02115310541F796
S1130A50AF0118161906D4F4BE01625071099F0142
S1130A60A0E3A293CF0101978C0F9D1F821B930BD0
S1130A7018161906B4F3FB01FF2314F4E0E0F0E0C8
S1130A80E095F095E40FF51F8EE2829380818E321B
S1130A9011F480E38293112314F48DE28293CF0145
S1130AA0DF91CF911F910F91FF90EF90DF90CF9046
S1130AB0089588EF91E0EEE8F0E0DF019C011D92DB
S1130AC021503040E1F710928D0010928C0087EF96
S1130AD091E090938B0080938A0081E0809387005B
S1130AE008950F931F93CF93DF9380918C0090917F
S1130AF08D0099232CF410928D0010928C0009C063
S1130B00883F914034F087EF91E090938D0080937B
S1130B108C0080918A0090918B0099232CF4109280
S1130B208B0010928A0009C0883F914034F087EF0F
S1130B3091E090938B0080938A00C0918C00D091B7
S1130B408D00CE0164E570E093D3162F60E08068D9
S1130B5017DF60E0812F806413DF80918A00909119
S1130B608B008C179D0784F08E0102571F4F61E0A4
S1130B70F80181918F0104DF219680918A00909180
S1130B808B008C179D079CF787EF91E090938D0065
S1130B9080938C0010928B0010928A001092870030
S1130BA0DF91CF911F910F910895C49A87B38E63FB
S1130BB087BBC498C49A80E58DB9C29A60E081E28B
S1130BC0DFDE60E088ECDCDE60E086E0D9DE60E059
S1130BD083E1D6DE60E080E2D3DE60E08CE0D0DE4C
S1130BE068DF7FDF08958E30A8F46630A8F490E0C3
S1130BF09C01220F331F820F931F880F991F24E536
S1130C00629F800D911D1124909389008093880028
S1130C1080E0089581E0089581E008951F93CF93C3
S1130C20DF93209188003091890040918C0050918D
S1130C308D002417350724F430938D0020938C0005
S1130C40E0EEE60FE03630F0603C18F0E0EAE60F44
S1130C5001C0EFE5813049F5609188007091890009
S1130C60CB01AB014B5F5F4F2E2F30E0F901EE0F4C
S1130C70FF1FEE0FFF1F2E0F3F1F261B370B2157A1
S1130C803F4FF901E80FF91FE491DC01A257BF4F70
S1130C90EE0FEC9301968417950799F76B5F7F4FDE
S1130CA0709389006093880072C0823009F06FC02D
S1130CB0C9018455910940918C0050918D0084178D
S1130CC0950724F490938D0080938C0099230CF461
S1130CD082C08E2F90E0FC01EE0FFF1FEE0FFF1F6E
S1130CE0E80FF91FE157FF4FD901A55CBF4FC901B8
S1130CF08B5B9F4F18E14491440F542F5470652F20
S1130D00660F560F550F550F642F6270762F770FAD
S1130D10670F660F562B742F7870719F702D1124F6
S1130D20572B42954F70642F6170762F770F670FA2
S1130D30742F7270C72FCC0F7C0F770F762B642F14
S1130D406470C62FCC0F6C0FC62FCC0FCC0F672F3F
S1130D506C2B4870419FC02D1124462F4C2BED0164
S1130D60219758835C93CC5ADF4F4883219648835C
S1130D7031961296A817B90709F0BDCFC9010B9691
S1130D8068EF71E075D29093890080938800809118
S1130D9088009091890020918A0030918B00281757
S1130DA0390724F490938B0080938A00FC01E25766
S1130DB0FF4F1082873F21E0920731F4109289009F
S1130DC01092880082E008C0019690938900809375
S1130DD0880080E001C081E0DF91CF911F910895E8
S1130DE00F931F93CF93DF93042FE901FCDE6881F7
S1130DF0662369F010E0802F11DF813051F01F5F0E
S1130E00FE01E10FF11D60816111F5CF04C080E0A6
S1130E1003C081E001C080E0DF91CF911F910F9169
S1130E2008951F93CF93DF93142FE901DCDEFE01B5
S1130E306491662351F0812FF1DE813041F02196D7
S1130E40FE0164916111F7CF04C080E003C081E02A
S1130E5001C080E0DF91CF911F910895DF92EF925E
S1130E60FF920F931F93CF93DF93C82FD62FD42EC7
S1130E70A701C901B8018FDD9C014D2D6D2F8C2F69
S1130E80AFDFDF91CF911F910F91FF90EF90DF9033
S1130E9008955058BB27AA270ED04DC13ED130F03B
S1130EA043D120F031F49F3F11F41EF433C10EF40A
S1130EB0E095E7FB29C1E92F4FD180F3BA17620708
S1130EC073078407950718F071F49EF567C10EF453
S1130ED0E0950B2EBA2FA02D0B01B90190010C0146
S1130EE0CA01A0011124FF27591B99F0593F50F45E
S1130EF0503E68F11A16F040A22F232F342F4427B6
S1130F00585FF3CF469537952795A795F0405395AD
S1130F10C9F77EF41F16BA0B620B730B840BBAF07D
S1130F209150A1F0FF0FBB1F661F771F881FC2F7E8
S1130F300EC0BA0F621F731F841F48F487957795FC
S1130F406795B795F7959E3F08F0B3CF9395880FB3
S1130F5008F09927EE0F9795879508950CD0EBC06C
S1130F60E3D040F0DAD030F021F45F3F19F0CCC088
S1130F70511115C1CFC0F0D098F39923C9F355236B
S1130F80B1F3951B550BBB27AA2762177307840778
S1130F9038F09F5F5F4F220F331F441FAA1FA9F32E
S1130FA033D00E2E3AF0E0E830D091505040E69520
S1130FB0001CCAF729D0FE2F27D0660F771F881F81
S1130FC0BB1F261737074807AB07B0E809F0BB0B70
S1130FD0802DBF01FF2793585F4F2AF09E3F510594
S1130FE068F092C0DCC05F3FECF3983EDCF386957A
S1130FF077956795B795F7959F5FC9F7880F911D0A
S11310009695879597F90895E1E0660F771F881FF5
S1131010BB1F621773078407BA0720F0621B730BA8
S1131020840BBA0BEE1F88F7E095089504D06894FA
S1131030B111B5C0089598D088F09F5790F0B92F9A
S11310409927B751A0F0D1F0660F771F881F991F19
S11310501AF0BA95C9F712C0B13081F09FD0B1E04F
S113106008959CC0672F782F8827B85F39F0B93F5F
S1131070CCF3869577956795B395D9F73EF490951B
S11310808095709561957F4F8F4F9F4F0895E89499
S113109009C097FB3EF490958095709561957F4FBC
S11310A08F4F9F4F9923A9F0F92F96E9BB2793956A
S11310B0F695879577956795B795F111F8CFFAF47A
S11310C0BB0F11F460FF1BC06F5F7F4F8F4F9F4FAB
S11310D016C0882311F096E911C0772321F09EE809
S11310E0872F762F05C0662371F096E8862F70E06F
S11310F060E02AF09A95660F771F881FDAF7880F49
S11311009695879597F9089597F99F6780E870E019
S113111060E008959FEF80EC089500240A94161669
S1131120170618060906089500240A9412161306D1
S1131130140605060895092E0394000C11F488235F
S113114052F0BB0F40F4BF2B11F460FF04C06F5F7B
S11311507F4F8F4F9F4F089557FD9058440F551F51
S113116059F05F3F71F04795880F97FB991F61F025
S11311709F3F79F087950895121613061406551F9C
S1131180F2CF4695F1DF08C0161617061806991F08
S1131190F1CF86957105610508940895E894BB27FD
S11311A066277727CB0197F908950BD0C4CFB5DF15
S11311B028F0BADF18F0952309F0A6CFABCF11249D
S11311C0EECFCADFA0F3959FD1F3950F50E0551FE2
S11311D0629FF001729FBB27F00DB11D639FAA2788
S11311E0F00DB11DAA1F649F6627B00DA11D661FD7
S11311F0829F2227B00DA11D621F739FB00DA11DF8
S1131200621F839FA00D611D221F749F3327A00DB1
S1131210611D231F849F600D211D822F762F6A2F4D
S113122011249F5750408AF0E1F088234AF0EE0FD2
S1131230FF1FBB1F661F771F881F91505040A9F7DF
S11312409E3F510570F060CFAACF5F3FECF3983E0C
S1131250DCF3869577956795B795F795E7959F5F46
S1131260C1F7FE2B880F911D9695879597F90895E0
S113127097FB072E16F4009406D077FD08D00BD008
S113128007FC05D03EF4909581959F4F0895709585
S113129061957F4F0895AA1BBB1B51E107C0AA1F8C
S11312A0BB1FA617B70710F0A61BB70B881F991F03
S11312B05A95A9F780959095BC01CD010895F894AD
S10512C0FFCF5A
S10912C22C011E001900BE
S9030000FC
