S01700004763634170706C69636174696F6E332E7372656359
S1130000A2C1B1C1B0C1AFC1AEC1ADC1ACC1ABC180
S1130010AAC1DDC1A8C1A7C1A6C1A5C1A4C1A3C16C
S1130020A2C1A1C1A0C1000000000000005F000047
S11300300007000700147F147F14242A7F2A124C1F
S11300402C10686436495522500005030000001C3A
S11300502241000041221C0014083E081408083EF6
S113006008080000503000101010101000606000EC
S11300700020100804023E5149453E00427F4000E2
S113008042615149462141454B311814127F1027D2
S1130090454545393C4A494930017109050336490A
S11300A0494936064949291E0036360000005636AD
S11300B000000814224100141414141400412214E2
S11300C0080201510906324979413E7E1111117E1F
S11300D07F494949363E414141227F4141221C7FAB
S11300E0494949417F090909013E4149497A7F0843
S11300F008087F00417F41002040413F017F0814F0
S113010022417F404040407F020C027F7F04081060
S11301107F3E4141413E7F090909063E4151215E2E
S11301207F09192946464949493101017F01013FA7
S11301304040403F1F2040201F3F4038403F631451
S113014008146307087008076151494543007F415B
S1130150410002040810200041417F000402010212
S113016004404040404000010204002054545478AC
S11301707F484444383844444420384444487F3811
S113018054545418087E0901020C5252523E7F08FE
S113019004047800447D40002040443D007F102842
S11301A0440000417F40007C041804787C08040467
S11301B07838444444387C14141408081414187C03
S11301C07C080404084854545420043F4440203C10
S11301D04040207C1C2040201C3C4030403C4428B3
S11301E01028440C5050503C4464544C440008368D
S11301F0410000007F000000413608000804081098
S113020008FFFFFFFFFF7C1211127C7F494949312F
S11302107F494949367F01010101603F213F607FE9
S11302204949494177087F087722414949367F1077
S113023008047F7E1009047E7F08142241403E0199
S1130240017F7F020C027F7F0808087F3E41414105
S11302503E7F0101017F7F090909063E4141412298
S113026001017F0101074848483F0E117F110E63C9
S1130270140814633F20203F60070808087F7F406C
S11302807E407F3F203F207F017F4848307F4830B9
S1130290007F007F484830224149493E7F083E4163
S11302A03E462919097F20545454783C4A4A4A311D
S11302B07C545428007C04040C00603C243C6038CA
S11302C0545454186C107C106C00445454287C20F2
S11302D010087C7C2112097C7C10284400403804DE
S11302E0047C7C0810087C7C1010107C3844444446
S11302F0387C0404047C7C141414083844444400FA
S113030004047C04040C5050503C08147C1408442D
S1130310281028443C20203C600C1010107C7C40A9
S11303207C407C3C203C207C047C5050207C502031
S1130330007C007C50502028445454387C103844AD
S113034038485434147C11241FBECFE5D4E0DEBFFA
S1130350CDBF22E0A0E6B0E001C01D92A537B207F0
S1130360E1F74CD04FC44CCEADD1A09A089583B7D9
S1130370856083BF89B7816089BF7894089580912F
S1130380640090916500883097406CF08091620021
S113039090916300019690936300809362001092A1
S11303A06500109264008091620090916300CC9784
S11303B06CF08091600090916100019690936100CF
S11303C080936000109263001092620008951F925F
S11303D00F920FB60F9211248F939F938091640014
S11303E090916500019690936500809364009F91BD
S11303F08F910F900FBE0F901F901895B5DFB7DF48
S1130400DD24D394CEE1D0E0BADFD5BADFD0609159
S1130410600070916100882777FD8095982FDCD269
S11304208B019C01E12CF12C4D2D60E080E086D203
S11304306091620070916300882777FD8095982F02
S1130440CBD28B019C014D2D60E083E077D280916B
S1130450640090916500BE01AED3882777FD809536
S1130460982FBAD28B019C014D2D60E086E066D2B4
S1130470C5D02FE986E891E0215080409040E1F713
S113048000C0000015BA2FE986E891E021508040B1
S11304909040E1F700C00000B7CFC298613011F47A
S11304A0C19A01C0C1988FB9779BFECFC29A0895B3
S11304B0CF92DF92EF92FF920F931F93CF93DF932C
S11304C06B017C01EA01CA010197209781F061E088
S11304D070E09B01220F331F660F771F660F771F93
S11304E0660F771F620F731F019798F702C061E0D0
S11304F070E0882777FD8095982F6ED2A70196012A
S1130500CFD237D277231CF40FEF1FEF02C001E0E4
S113051010E0069F9001079F300D169F300D1124A7
S11305200F2EF5E7EF2EF0E0FF2EF02D0F2EFAE060
S1130530CF2ED12CF02D4EE202C0EC017F01F70149
S1130540C901B60138D3805D8293262F372FCE019F
S11305500197009739F4F70132974083211531054B
S113056061F721C02115310541F7AF0118161906AD
S1130570D4F4BE01625071099F01A0E3A293CF019C
S113058001978C0F9D1F821B930B18161906B4F349
S1130590FB01FF2314F4E0E0F0E0E095F095E40FB4
S11305A0F51F8EE2829380818E3211F480E3829370
S11305B0112314F48DE28293CF01DF91CF911F9127
S11305C00F91FF90EF90DF90CF90089588EF91E026
S11305D0EDE7F0E0DF019C011D9221503040E1F78E
S11305E010927C0010927B0087EF91E090937A0048
S11305F08093790081E08093760008950F931F9390
S1130600CF93DF9380917B0090917C0099232CF40D
S113061010927C0010927B0009C0883F914034F016
S113062087EF91E090937C0080937B008091790028
S113063090917A0099232CF410927A001092790008
S113064009C0883F914034F087EF91E090937A009D
S113065080937900C0917B00D0917C00CE0164E549
S113066070E0A9D2162F60E0806817DF60E0812F68
S1130670806413DF8091790090917A008C179D0734
S113068084F08E0103581F4F61E0F80181918F01BE
S113069004DF21968091790090917A008C179D0750
S11306A09CF787EF91E090937C0080937B001092FD
S11306B07A001092790010927600DF91CF911F9109
S11306C00F910895C49A87B38E6387BBC498C49A64
S11306D080E58DB9C29A60E081E2DFDE60E083E606
S11306E0DCDE60E086E0D9DE60E083E1D6DE60E057
S11306F080E2D3DE60E08CE0D0DE68DF7FDF089547
S11307008E30A8F46630A8F490E09C01220F331FC9
S1130710820F931F880F991F24E5629F800D911DFE
S11307201124909378008093770080E0089581E00D
S1130730089581E008951F93CF93DF93209177006C
S11307403091780040917B0050917C00241735074C
S113075024F430937C0020937B00E0EEE60FE03637
S113076030F0603C18F0E0EAE60F01C0EFE58130BC
S113077049F56091770070917800CB01AB014B5F34
S11307805F4F2E2F30E0F901EE0FFF1FEE0FFF1F1A
S11307902E0F3F1F261B370B2A5D3F4FF901E80F31
S11307A0F91FE491DC01A358BF4FEE0FEC930196BF
S11307B08417950799F76B5F7F4F70937800609368
S11307C0770072C0823009F06FC0C9018455910965
S11307D040917B0050917C008417950724F49093FA
S11307E07C0080937B0099230CF482C08E2F90E0D0
S11307F0FC01EE0FFF1FEE0FFF1FE80FF91FEA5D6C
S1130800FF4FD901A65DBF4FC9018C5C9F4F18E112
S11308104491440F542F5470652F660F560F550F93
S1130820550F642F6270762F770F670F660F562B64
S1130830742F7870719F702D1124572B42954F702F
S1130840642F6170762F770F670F742F7270C72F24
S1130850CC0F7C0F770F762B642F6470C62FCC0FD0
S11308606C0FC62FCC0FCC0F672F6C2B4870419F99
S1130870C02D1124462F4C2BED01219758835C93F6
S1130880CC5ADF4F48832196488331961296A81795
S1130890B90709F0BDCFC9010B9668EF71E08BD1A0
S11308A090937800809377008091770090917800FE
S11308B02091790030917A002817390724F4909315
S11308C07A0080937900FC01E358FF4F1082873F40
S11308D021E0920731F4109278001092770082E0C0
S11308E008C00196909378008093770080E001C05F
S11308F081E0DF91CF911F9108950F931F93CF93C0
S1130900DF93042FE901FCDE6881662369F010E0BF
S1130910802F11DF813051F01F5FFE01E10FF11DC7
S113092060816111F5CF04C080E003C081E001C0A3
S113093080E0DF91CF911F910F910895DF92EF92A4
S1130940FF920F931F93CF93DF93C82FD62FD42EEC
S1130950A701C901B801ACDD9C014D2D6D2F8C2F71
S1130960CCDFDF91CF911F910F91FF90EF90DF903B
S1130970089504D06894B1118DC0089570D088F0A2
S11309809F5790F0B92F9927B751A0F0D1F0660F77
S1130990771F881F991F1AF0BA95C9F712C0B13092
S11309A081F077D0B1E0089574C0672F782F88273D
S11309B0B85F39F0B93FCCF3869577956795B395D1
S11309C0D9F73EF490958095709561957F4F8F4F40
S11309D09F4F0895E89409C097FB3EF49095809545
S11309E0709561957F4F8F4F9F4F9923A9F0F92FF1
S11309F096E9BB279395F695879577956795B7956F
S1130A00F111F8CFFAF4BB0F11F460FF1BC06F5F54
S1130A107F4F8F4F9F4F16C0882311F096E911C066
S1130A20772321F09EE8872F762F05C0662371F087
S1130A3096E8862F70E060E02AF09A95660F771F9B
S1130A40881FDAF7880F9695879597F9089557FDCB
S1130A509058440F551F59F05F3F71F04795880F28
S1130A6097FB991F61F09F3F79F0879508951216BF
S1130A7013061406551FF2CF4695F1DF08C016166B
S1130A8017061806991FF1CF86957105610508941C
S1130A900895E894BB2766277727CB0197F9089533
S1130AA00BD078C069D028F06ED018F0952309F0E7
S1130AB05AC05FC01124EECFCADFA0F3959FD1F3D3
S1130AC0950F50E0551F629FF001729FBB27F00DF8
S1130AD0B11D639FAA27F00DB11DAA1F649F66274D
S1130AE0B00DA11D661F829F2227B00DA11D621F9C
S1130AF0739FB00DA11D621F839FA00D611D221F56
S1130B00749F3327A00D611D231F849F600D211D39
S1130B10822F762F6A2F11249F5750408AF0E1F0DC
S1130B2088234AF0EE0FFF1FBB1F661F771F881F25
S1130B3091505040A9F79E3F510570F014C0AACFC0
S1130B405F3FECF3983EDCF3869577956795B79510
S1130B50F795E7959F5FC1F7FE2B880F911D96953A
S1130B60879597F9089597F99F6780E870E060E0AA
S1130B7008959FEF80EC089500240A941616170632
S1130B8018060906089500240A941216130614067A
S1130B9005060895092E0394000C11F4882352F0DD
S1130BA0BB0F40F4BF2B11F460FF04C06F5F7F4F95
S1130BB08F4F9F4F089597FB072E16F4009406D08D
S1130BC077FD08D00BD007FC05D03EF490958195B5
S1130BD09F4F0895709561957F4F0895AA1BBB1B85
S1130BE051E107C0AA1FBB1FA617B70710F0A61B29
S1130BF0B70B881F991F5A95A9F780959095BC014A
S10B0C00CD010895F894FFCF23
S9030000FC
